:100000000C942A000C9434000C9434000C943400AA
:100010000C9434000C9434000C9434000C94340090
:100020000C9434000C9434000C9434000C94340080
:100030000C9434000C9434000C9434000C94340070
:100040000C9434000C9434000C9434000C94340060
:100050000C94340011241FBECFE5D8E0DEBFCDBF25
:100060000E9436000C94ED000C9400008FE08ABBD7
:1000700080E090E059C029E02BBB2FEF39E648E142
:10008000215030404040E1F700C0000028E02BBB89
:100090002FEF39E648E1215030404040E1F700C001
:1000A00000002CE02BBB2FEF39E648E12150304017
:1000B0004040E1F700C0000024E02BBB2FEF39E601
:1000C00048E1215030404040E1F700C0000026E008
:1000D0002BBB2FEF39E648E1215030404040E1F79B
:1000E00000C0000022E02BBB2FEF39E648E1215091
:1000F00030404040E1F700C0000023E02BBB2FEF71
:1001000039E648E1215030404040E1F700C00000AE
:1001100021E02BBB2FEF39E648E121503040404031
:10012000E1F700C000000196833091050CF4A3CFE5
:1001300089E08BBB8FEF99E628E181509040204009
:10014000E1F700C000003FEF4DE389E4315040404B
:100150008040E1F700C0000080E090E02DC029E081
:100160002BBB2FEF39E648E1215030404040E1F70A
:1001700000C0000023E02BBB2FEF39E648E12150FF
:1001800030404040E1F700C0000026E02BBB2FEFDD
:1001900039E648E1215030404040E1F700C000001E
:1001A0002CE02BBB2FEF39E648E121503040404096
:1001B000E1F700C0000001968330910584F289E0E8
:1001C0008BBB8FEF99E628E1815090402040E1F70A
:0E01D00000C0000080E090E00895F894FFCF9A
:00000001FF
